:100000000C942A000C9449000C9447000C9447006F
:100010000C9447000C9447000C9447000C94470044
:100020000C9447000C9447000C9447000C94470034
:100030000C9447000C9447000C9447000C94470024
:100040000C9447000C9447000C9447000C94470014
:100050000C94470011241FBECFE5D8E0DEBFCDBF12
:1000600010E0A0E6B0E0EAE8F2E102C005900D92EF
:10007000A23BB107D9F720E0A2EBB0E001C01D928E
:10008000A83BB207E1F70E941D010C9443090C94B0
:1000900000001F920F920FB60F9211248F939F931F
:1000A0008091600090916100019719F482E090E0E6
:1000B00002C081E090E090936100809360009F9186
:1000C0008F910F900FBE0F901F9018950E94ED0317
:1000D0002FE632E143E05EE30E944A039B01AC015C
:1000E00060E07FEF8FE797E40E94DD020E94BC038F
:1000F0007DBD6CBD1FBC8EB585608EBD08B602FE91
:10010000FDCF1EBC84E088BF08958FEF87BB8F981A
:1001100081B3806781BB80E48BBF83E085BF789427
:100120000C949E0088BB94989598969A61E070E034
:1001300080E090E00E9466009698089588E30E940F
:10014000920081E00E94920082E00E94920080E88A
:100150000E9492008CE00C94920088BB949A95982F
:10016000969A61E070E080E090E00E9466009698C8
:100170000895EF92FF920F931F93CF93DF938C011B
:10018000C091B200D091B300C80FD91F7E01888101
:10019000882371F0CE01801B910B409719F480ECFD
:1001A0000E9492002196F70180810E94AD00EECF5F
:1001B000DF91CF911F910F91FF90EF9008950F93D2
:1001C0001F93CF93DF938B010896880F880F880FBA
:1001D0000E949200E801085F1F4F89910E94AD00C4
:1001E000C017D107D1F7DF91CF911F910F910895DB
:1001F0000F931F93CF93DF93EC016130710511F4DE
:1002000080E804C06230710519F480EC0E9492000D
:10021000C131D10514F0CF70DD2700E010E00C17DC
:100220001D0734F484E10E9492000F5F1F4FF7CF47
:10023000DF91CF911F910F9108952F923F924F928E
:100240005F926F927F928F929F92AF92BF92CF9266
:10025000DF92EF92FF920F931F93CF93DF93CDB76F
:10026000DEB7AE970FB6F894DEBF0FBECDBF88E005
:10027000EEE6F0E0DE01919601900D928A95E1F7AD
:1002800088E0E6E7F0E0DE01599601900D928A954C
:10029000E1F788E0EEE7F0E0DE01519601900D9283
:1002A0008A95E1F788E0E6E8F0E0DE011996019032
:1002B0000D928A95E1F788E0EEE8F0E0DE01119614
:1002C00001900D928A95E1F70E94850085E090E00B
:1002D0000E9479045C01892B09F4939ABE016F5D39
:1002E0007F4F80E090E00E94DF00BE01675E7F4F9D
:1002F00081E090E00E94DF00BE016F5E7F4F82E0F0
:1003000090E00E94DF00BE01675F7F4F83E090E0D6
:100310000E94DF00BE016F5F7F4F84E090E00E948B
:10032000DF0000E010E062E070E0C8010E94F80029
:1003300080E00E94AD0064E670E080E090E00E9402
:10034000660062E070E0C8010E94F80081E00E944F
:10035000AD0064E670E080E090E00E94660081E01D
:100360000E94920080EC0E9492000F5F1F4F0230AB
:100370001105C9F60E94E60563E070E00E94B5022F
:100380009C012E5F3F4F3EA72DA70E94E605B801B6
:100390000E94B5029C012F5F3F4F3AA729A70E94F8
:1003A000E60564E070E00E94B5029C012F5F3F4FBC
:1003B0003CA72BA7C12CD12C94E6692E712C2FE0E1
:1003C000E22EF12C6091600070916100C8010E94E2
:1003D000F80080E00E94AD00812C912C8BA59CA59B
:1003E0008816990674F469A57AA5C701880D991D28
:1003F0000E94F8008DA50E94AD003FEF831A930A7A
:10040000EDCF1301072C000C44085508C201B101BF
:100410000E9466006091600070916100C8010E94B6
:10042000F80081E00E94AD00C201B1010E946600A7
:1004300081E00E94920080EC0E94920091E0E91A13
:10044000F10859F524E16216710419F03AE0631AD3
:1004500071080E94E60563E070E00E94B5029C010D
:100460002E5F3F4F3EA72DA70E94E60562E070E099
:100470000E94B5029C012F5F3F4F3AA729A70E9417
:10048000E60564E070E00E94B5029C012F5F3F4FDB
:100490003CA72BA78FE0E82EF12C3FEFC31AD30A1D
:1004A0008CE2C81681E0D80641F094EFC91691E0BD
:1004B000D90629F406E010E002C004E010E061E093
:1004C00070E08CE090E00E94F800DF92CF922FEA7B
:1004D00030E03F932F93BF92AF920E94F605C50183
:1004E0000E94B9000F900F900F900F900F900F90F7
:1004F0000E151F0509F066CF809160009091610094
:1005000029A53AA52817390709F05CCF81E00E9498
:10051000920086E990E00E94B90062E070E080E01D
:1005200090E00E94F80084EA90E00E94B900C501C2
:100530000E94B90080E090E0AE960FB6F894DEBF5E
:100540000FBECDBFDF91CF911F910F91FF90EF9024
:10055000DF90CF90BF90AF909F908F907F906F90E3
:100560005F904F903F902F90089597FB072E16F4C1
:10057000009407D077FD09D00E94C90207FC05D07E
:100580003EF4909581959F4F0895709561957F4FAA
:100590000895AA1BBB1B51E107C0AA1FBB1FA617CA
:1005A000B70710F0A61BB70B881F991F5A95A9F71C
:1005B00080959095BC01CD0108955058BB27AA277E
:1005C0000E94F5020C943F040E94310438F00E940E
:1005D000380420F039F49F3F19F426F40C942E04CB
:1005E0000EF4E095E7FB0C942804E92F0E945004D8
:1005F00058F3BA17620773078407950720F079F458
:10060000A6F50C9472040EF4E0950B2EBA2FA02DD3
:100610000B01B90190010C01CA01A0011124FF27AF
:10062000591B99F0593F50F4503E68F11A16F040AA
:10063000A22F232F342F4427585FF3CF46953795A9
:100640002795A795F0405395C9F77EF41F16BA0B6E
:10065000620B730B840BBAF09150A1F0FF0FBB1F1C
:10066000661F771F881FC2F70EC0BA0F621F731F65
:10067000841F48F4879577956795B795F7959E3FC2
:1006800008F0B0CF9395880F08F09927EE0F979553
:10069000879508950E945E030C943F040E943804DD
:1006A00058F00E94310440F029F45F3F29F00C9487
:1006B000280451110C9473040C942E040E945004CD
:1006C00068F39923B1F3552391F3951B550BBB2781
:1006D000AA2762177307840738F09F5F5F4F220FC6
:1006E000331F441FAA1FA9F335D00E2E3AF0E0E8BD
:1006F00032D091505040E695001CCAF72BD0FE2F07
:1007000029D0660F771F881FBB1F2617370748079A
:10071000AB07B0E809F0BB0B802DBF01FF27935852
:100720005F4F3AF09E3F510578F00C9428040C94EA
:1007300073045F3FE4F3983ED4F38695779567950D
:10074000B795F7959F5FC9F7880F911D9695879587
:1007500097F90895E1E0660F771F881FBB1F6217A6
:1007600073078407BA0720F0621B730B840BBA0B64
:10077000EE1F88F7E09508950E94580488F09F576F
:1007800098F0B92F9927B751B0F0E1F0660F771FB5
:10079000881F991F1AF0BA95C9F714C0B13091F0AB
:1007A0000E947204B1E008950C947204672F782FB0
:1007B0008827B85F39F0B93FCCF386957795679570
:1007C000B395D9F73EF490958095709561957F4FDC
:1007D0008F4F9F4F0895E89409C097FB3EF4909582
:1007E0008095709561957F4F8F4F9F4F9923A9F00A
:1007F000F92F96E9BB279395F69587957795679599
:10080000B795F111F8CFFAF4BB0F11F460FF1BC0DC
:100810006F5F7F4F8F4F9F4F16C0882311F096E96F
:1008200011C0772321F09EE8872F762F05C066231D
:1008300071F096E8862F70E060E02AF09A95660FD6
:10084000771F881FDAF7880F9695879597F908958F
:1008500097F99F6780E870E060E008959FEF80EC73
:10086000089500240A941616170618060906089516
:1008700000240A9412161306140605060895092E7C
:100880000394000C11F4882352F0BB0F40F4BF2BEB
:1008900011F460FF04C06F5F7F4F8F4F9F4F08952B
:1008A00057FD9058440F551F59F05F3F71F0479521
:1008B000880F97FB991F61F09F3F79F08795089506
:1008C000121613061406551FF2CF4695F1DF08C025
:1008D000161617061806991FF1CF86957105610542
:1008E00008940895E894BB2766277727CB0197F9EA
:1008F00008950F931F93CF93DF938230910510F4E7
:1009000082E090E0E091B600F091B70020E030E0A6
:10091000A0E0B0E0309719F140815181028113814C
:1009200048175907C8F08417950769F4109731F0F4
:1009300012960C93129713961C9327C00093B6003F
:100940001093B70022C02115310519F04217530743
:1009500018F49A01BD01EF01DF01F801DBCF211589
:100960003105F9F0281B390B2430310580F48A81D8
:100970009B816115710521F0FB019383828304C083
:100980009093B7008093B600FE01329644C0FE01FA
:10099000E20FF31F81939193225031093983288309
:1009A0003AC02091B4003091B500232B41F420913E
:1009B0006600309167003093B5002093B400209119
:1009C0006400309165002115310541F42DB73EB723
:1009D0004091680050916900241B350BE091B400F0
:1009E000F091B500E217F307A0F42E1B3F0B281778
:1009F000390778F0AC014E5F5F4F2417350748F098
:100A00004E0F5F1F5093B5004093B40081939193B4
:100A100002C0E0E0F0E0CF01DF91CF911F910F9194
:100A20000895CF93DF93009709F481C0FC013297BA
:100A300013821282A091B600B091B700109781F492
:100A400020813181820F931F2091B4003091B50035
:100A50002817390751F5F093B500E093B40067C04B
:100A6000ED0120E030E0CE17DF0740F44A815B81E2
:100A70009E0141155105F1F0EA01F5CFD383C28300
:100A800040815181840F951FC817D90759F4888177
:100A90009981840F951F0296918380838A819B811F
:100AA000938382832115310529F4F093B700E093F5
:100AB000B6003DC0E901FB83EA8349915991C40F17
:100AC000D51FEC17FD0761F480819181840F951F7C
:100AD0000296E90199838883828193819B838A832B
:100AE000E0E0F0E012968D919C911397009719F039
:100AF000FD01DC01F7CF8D919C9111979D012E5F37
:100B00003F4F820F931F2091B4003091B5002817FA
:100B1000390769F4309729F41092B7001092B600A3
:100B200002C013821282B093B500A093B400DF918B
:100B3000CF9108958F929F92AF92BF92CF92DF9202
:100B4000EF92FF92CF93DF93EC01688179818A81E4
:100B50009B81611571058105910521F464E279EDB0
:100B60008BE597E02DE133EF41E050E00E94A908CA
:100B700049015A019B01AC01A7EAB1E40E94C808EF
:100B80006B017C01ACEEB4EFA50194010E94D60884
:100B9000DC01CB018C0D9D1DAE1DBF1DB7FF03C039
:100BA0000197A109B04888839983AA83BB839F7763
:100BB000DF91CF91FF90EF90DF90CF90BF90AF90FB
:100BC0009F908F9008950E949A0508958AE690E07C
:100BD0000E949A050895A0E0B0E080936A00909387
:100BE0006B00A0936C00B0936D000895AEE0B0E090
:100BF000ECEFF5E00C94E9080D891E8986E08C8302
:100C00001A8309838FEF9FE79E838D83AE01475E32
:100C10005F4F6F89788DCE0101960E941806EF8193
:100C2000F885E00FF11F10822E96E4E00C94050980
:100C3000ABE0B0E0EEE1F6E00C94DB086C017B0188
:100C40008A01FC0117821682838181FFCCC1CE010B
:100C500001963C01F6019381F70193FD859193FF85
:100C600081917F01882309F4BAC1853239F493FD5B
:100C7000859193FF81917F01853229F4B60190E03F
:100C80000E940F08E7CF912C212C312CFFE1F315A6
:100C9000D8F08B3279F038F4803279F08332A1F4D5
:100CA000232D20611DC08D3261F0803369F4232D26
:100CB000216016C0832D8260382EE32DE4603E2E25
:100CC0002AC0F32DF8601DC037FC2DC020ED280F81
:100CD0002A3040F08E32B9F436FC81C1232D2064D5
:100CE000322E19C036FE06C08AE0989E200D1124CF
:100CF000922E11C0EAE02E9E200D1124222EF32DFB
:100D0000F0623F2E08C08C3621F4832D8068382E87
:100D100002C0883641F4F70193FD859193FF8191DC
:100D20007F018111B3CF982F9F7D9554933028F484
:100D30000C5F1F4F9FE399830DC0833631F08337DB
:100D400071F0833509F059C021C0F8018081898391
:100D50000E5F1F4F88248394912C530113C02801E8
:100D6000F2E04F0E511CF801A080B18036FE03C0A6
:100D7000692D70E002C06FEF7FEFC5010E9404088B
:100D80004C018201F32DFF773F2E16C0280122E08F
:100D9000420E511CF801A080B18036FE03C0692DBF
:100DA00070E002C06FEF7FEFC5010E94F9074C01B0
:100DB000F32DF0683F2E820133FC1BC0822D90E0A2
:100DC00088169906B0F4B60180E290E00E940F0800
:100DD0002A94F4CFF50137FC859137FE81915F01AC
:100DE000B60190E00E940F0821102A9421E0821A97
:100DF00091088114910471F7E8C0843611F08936A6
:100E000041F5F80137FE07C06081718182819381CD
:100E10000C5F1F4F08C060817181072E000C880B8A
:100E2000990B0E5F1F4FF32DFF763F2E97FF09C0E2
:100E300090958095709561957F4F8F4F9F4FF0688B
:100E40003F2E2AE030E0A3010E944B08882E86182E
:100E500045C0853731F4232D2F7EB22E2AE030E0B5
:100E600025C0932D997FB92E8F36C1F018F488359F
:100E700079F0B5C0803719F0883721F0B0C0E92F7C
:100E8000E061BE2EB4FE0DC0FB2DF460BF2E09C084
:100E900034FE0AC0292F2660B22E06C028E030E0BA
:100EA00005C020E130E002C020E132E0F801B7FEE9
:100EB00007C060817181828193810C5F1F4F06C0E2
:100EC0006081718180E090E00E5F1F4FA3010E945E
:100ED0004B08882E8618FB2DFF773F2E36FE0DC05F
:100EE000232D2E7FA22E891458F434FE0BC032FC21
:100EF00009C0832D8E7EA82E05C0B82CA32C03C05C
:100F0000B82C01C0B92CA4FE0FC0FE01E80DF11DE4
:100F10008081803321F49A2D997EA92E09C0A2FEEA
:100F200006C0B394B39404C08A2D867809F0B394B4
:100F3000A3FC11C0A0FE06C0B21488F4280C922CA9
:100F40009B180EC0B21460F4B60180E290E00E94DB
:100F50000F08B394F7CFB21418F42B1802C0982CD2
:100F6000212CA4FE10C0B60180E390E00E940F087F
:100F7000A2FE17C0A1FC03C088E790E002C088E58C
:100F800090E0B6010CC08A2D867859F0A1FE02C00F
:100F90008BE201C080E2A7FC8DE2B60190E00E94E6
:100FA0000F08891438F4B60180E390E00E940F081E
:100FB0009A94F7CF8A94F301E80DF11D8081B60170
:100FC00090E00E940F088110F5CF222009F442CE54
:100FD000B60180E290E00E940F082A94F6CFF60155
:100FE0008681978102C08FEF9FEF2B96E2E10C94F0
:100FF000F708FC010590615070400110D8F780950A
:1010000090958E0F9F1F0895FC01615070400190D4
:101010000110D8F7809590958E0F9F1F08950F931C
:101020001F93CF93DF93FB01238121FD03C08FEF3B
:101030009FEF2CC022FF16C0468157812481358145
:101040004217530744F4A081B1819D012F5F3F4FA8
:10105000318320838C93268137812F5F3F4F3783E5
:10106000268314C08B01EC01FB010084F185E02D87
:101070000995892BE1F6D80116968D919C911797C9
:10108000019617969C938E931697CE01DF91CF9180
:101090001F910F910895FA01AA27283051F12031AC
:1010A00081F1E8946F936E7F6E5F7F4F8F4F9F4FFC
:1010B000AF4FB1E03ED0B4E03CD0670F781F891F3E
:1010C0009A1FA11D680F791F8A1F911DA11D6A0F0C
:1010D000711D811D911DA11D20D009F468943F91BF
:1010E0002AE0269F11243019305D3193DEF6CF01BE
:1010F0000895462F4770405D4193B3E00FD0C9F784
:10110000F6CF462F4F70405D4A3318F0495D31FDF0
:101110004052419302D0A9F7EACFB4E0A695979543
:10112000879577956795BA95C9F700976105710519
:1011300008959B01AC010A2E069457954795379563
:101140002795BA95C9F7620F731F841F951FA01DBD
:101150000895052E97FB1EF400940E94C00857FDC9
:1011600007D00E94120907FC03D04EF40C94C0086B
:1011700050954095309521953F4F4F4F5F4F0895C3
:1011800090958095709561957F4F8F4F9F4F0895F3
:101190000E943409A59F900DB49F900DA49F800DCF
:1011A000911D11240895B7FF0C94C8080E94C80827
:1011B000821B930B08952F923F924F925F926F92F2
:1011C0007F928F929F92AF92BF92CF92DF92EF92D7
:1011D000FF920F931F93CF93DF93CDB7DEB7CA1B58
:1011E000DB0B0FB6F894DEBF0FBECDBF09942A8883
:1011F000398848885F846E847D848C849B84AA842B
:10120000B984C884DF80EE80FD800C811B81AA81B7
:10121000B981CE0FD11D0FB6F894DEBF0FBECDBF82
:10122000ED010895A1E21A2EAA1BBB1BFD010DC002
:10123000AA1FBB1FEE1FFF1FA217B307E407F50786
:1012400020F0A21BB30BE40BF50B661F771F881F62
:10125000991F1A9469F760957095809590959B01F8
:10126000AC01BD01CF010895A29FB001B39FC001A1
:10127000A39F700D811D1124911DB29F700D811DC2
:0A1280001124911D0895F894FFCF8A
:10128A00020001000000B8002000010000000E0E5C
:10129A000E041F040A110E0E0E041F040A0A041576
:1012AA000E150E150E04040407141C0507041F046A
:1012BA001F04041F041F2020202047414D45204FB2
:1012CA0056455200202053434F5245203A200025CC
:0212DA006400AE
:00000001FF
