:100000000C9445000C9464000C9462000C94620003
:100010000C9462000C9462000C9462000C946200D8
:100020000C9462000C9462000C9462000C946200C8
:100030000C9462000C9462000C9462000C946200B8
:100040000C9462000C9462000C9462000C946200A8
:100050000C9462009E00A000A200A400A600A800CC
:10006000AA00AC00AE00B000310233023502370204
:1000700039023B023D023F024102430215031803CD
:100080001B031E0321032403270311241FBECFE5F6
:10009000D8E0DEBFCDBF10E0A0E6B0E0E0EBF1E1DC
:1000A00002C005900D92A439B107D9F720E0A4E968
:1000B000B0E001C01D92A13AB207E1F70E94C70467
:1000C0000C94D6080C9400001F920F920FB60F925A
:1000D00011242F933F934F935F936F937F938F934D
:1000E0009F93AF93BF93EF93FF932091960030912E
:1000F0009700409198005091990060919A007091FA
:100100009B0080919C000E949701FF91EF91BF910D
:10011000AF919F918F917F916F915F914F913F919F
:100120002F910F900FBE0F901F9018958A30910558
:10013000C8F4FC01E65DFF4F0C94F2048FE711C098
:100140008DE00FC087EB0DC08FE90BC08DEC09C0AF
:100150008BED07C08BEF05C08FE003C08FEF01C0B0
:100160008FED88BB089581B3836081BB909A919A8B
:1001700008958FEF84BB87BB80E781BB8B9A8AB3DE
:100180008F608ABB80E48BBF83E085BF78940E9438
:10019000650462E070E080E090E00E94A20447E025
:1001A00050E060E070E088E690E00E9480040C94EB
:1001B000B300909A919A8DE08A95F1F7000091989A
:1001C0008AE18A95F1F700C090988AE18A95F1F763
:1001D00000C008958DE08A95F1F70000909A9AE1A9
:1001E0009A95F1F700C080B390989DE09A95F1F749
:1001F00000008695817090E008950F931F93CF9330
:10020000DF938998919A08E010E080E090E0EC019B
:10021000CC0FDD1F0E94EA008C2B9D2B0150110991
:10022000B1F7899ADF91CF911F910F910895892B92
:1002300011F0919A01C0919890988DE08A95F1F70C
:100240000000909A8AE18A95F1F700C090988DE0BD
:100250008A95F1F700000895EF92FF920F931F9394
:10026000CF93DF938C01EE24E394F12CC7E0D0E030
:10027000C7010C2E02C0880F991F0A94E2F7802351
:1002800091230E941701219798F78998919A0E94CB
:10029000EA00899A892B51F780E090E0DF91CF91B5
:1002A0001F910F91FF90EF9008958AE18A95F1F7E1
:1002B00000C0909A8AE18A95F1F700C0919A08955A
:1002C0000E9423062FE632E143E05EE30E947905B7
:1002D0009B01AC0160E07FEF8FE797E40E940C0583
:1002E0000E94EB057DBD6CBD1FBC8EB585608EBDCB
:1002F00088B7846088BF089508B602FEFDCF1EBC93
:1003000088B7846088BF08950E9460010C947C01C6
:10031000FC01108282E3818384E1828383E0838312
:1003200087E1848381E1858381E286830895CF9389
:10033000DF93CDB7DEB727970FB6F894DEBF0FBEB9
:10034000CDBF29833A834B835C836D837E838F8308
:10035000CE0101960E9488010E94D90080ED90E0B4
:100360000E942C0180E090E00E942C01898190E0A5
:100370000E942C018A8190E00E942C018B8190E0E8
:100380000E942C018C8190E00E942C018D8190E0D4
:100390000E942C018E8190E00E942C018F8190E0C0
:1003A0000E942C010E94550127960FB6F894DEBFDB
:1003B0000FBECDBFDF91CF910895CF93DF93EC01B6
:1003C0000E94D90080ED90E00E942C0180E090E036
:1003D0000E942C010E94D90081ED90E00E942C0126
:1003E0000E94FD00888380E090E00E9417010E9437
:1003F000FD00898380E090E00E9417010E94FD00CB
:100400008A8380E090E00E9417010E94FD008B83A8
:1004100080E090E00E9417010E94FD008C8380E044
:1004200090E00E9417010E94FD008D8380E090E023
:100430000E9417010E94FD008E8381E090E00E94DF
:100440001701DF91CF910C945501672B11F40C9497
:1004500096008A309105C8F4FC01EC5CFF4F0C94C7
:10046000F2048EE711C08CE00FC086EB0DC08EE960
:100470000BC08CEC09C08AED07C08AEF05C08EE086
:1004800003C08EEF01C08EED88BB08959C0144E04F
:10049000359527954A95E1F72F7033274AE0429F1B
:1004A000F001439FF00D112460E170E00E94DE0432
:1004B0008E0F9F1F0895CF93DF93EC01CB0163E074
:1004C00070E00E94D007FC01009711F1209729F0FD
:1004D000DC01129681E090E004C080E38083818398
:1004E00013C01C161D0664F401979E012F7033275C
:1004F000205D2E9324E0D595C7952A95E1F7F1CF9D
:10050000892B11F480E38083128280E090E002C0A6
:100510008FEF9FEFDF91CF910895FC019F01281B82
:10052000390B41914111FACFC9010895FC01DB015A
:100530009D01261B370B4D91442311F04193F8CFB9
:10054000FC01E20FF31F10820895DF92EF92FF92F9
:100550000F931F93CF93DF93CDB7DEB727970FB6D7
:10056000F894DEBF0FBECDBF5C836D837E838F8327
:10057000F22EE32ED42E83E090E00E94AF068C0191
:10058000892B19F48FEF9FEFBFC061E070E080E02E
:1005900090E00E94A204B8018D2D90E00E945B02C1
:1005A00042E050E060E070E0C8010E9480048AE30D
:1005B0000E947404F8011082B8018E2D90E00E9410
:1005C0005B0242E050E060E070E0C8010E948004FD
:1005D0008AE30E947404F801108261E070E086E012
:1005E00090E00E94A204B8018F2D90E00E945B026F
:1005F00042E050E060E070E0C8010E94800442E008
:1006000050E060E070E080E790E00E948004F80134
:100610001082EC818E2F90E0FC013197E730F105DC
:10062000C8F4E25CFF4F0C94F20463E770E014C07E
:1006300067E770E011C06BE770E00EC06FE770E035
:100640000BC063E870E008C067E870E005C06BE8C5
:1006500070E002C06FE870E0C8010E949602C80115
:100660000E948D027C01BC016F5F7F4FC8010E9418
:10067000D0078C01009709F485CFA70160E070E0F6
:100680000E94800462E070E087E090E00E94A20493
:100690008D81B80190E00E945B02019609F472CF4F
:1006A00042E050E060E070E0C8010E9480048FE208
:1006B0000E947404F80110828E81B80190E00E94BB
:1006C0005B02019609F45ECF42E050E060E070E02A
:1006D000C8010E9480048FE20E947404F801108215
:1006E0008F81B80190E00E945B02019609F44ACF25
:1006F00042E050E060E070E0C8010E948004C80160
:100700000E94470780E090E027960FB6F894DEBF7E
:100710000FBECDBFDF91CF911F910F91FF90EF9052
:10072000DF900895AF92BF92CF92DF92EF92FF9247
:100730000F931F93CF93DF93CDB7DEB727970FB6F5
:10074000F894DEBF0FBECDBFDC01FB01E982FA8267
:100750000B831C832D833E834F838CEB90EF9DBDD9
:100760008CBD1FBC9EB595609EBD2AE030E0CD01DA
:10077000B9010E94DE048C01CB01B9010E94DE04A4
:100780007C01CF01B9010E94DE046C01CB01B901EB
:100790000E94DE045C0108B602FC33C0D89A61E016
:1007A00070E0C8010E9425028FE193E00197F1F704
:1007B00000C00000D898D99A61E070E0C7010E949B
:1007C00025028FE193E00197F1F700C00000D9986E
:1007D000DA9AC6010E9496008FE193E00197F1F743
:1007E00000C00000DA98DB9A61E070E0C5010E9469
:1007F00025028FE193E00197F1F700C00000DB983C
:10080000CACF1EBC88B7846088BF29813A814B81DA
:100810005C816D817E818F8127960FB6F894DEBF53
:100820000FBECDBFDF91CF911F910F91FF90EF9041
:10083000DF90CF90BF90AF900C94A5029F92AF92A3
:10084000BF92CF92DF92EF92FF920F931F93CF93BD
:10085000DF93CDB7DEB727970FB6F894DEBF0FBE94
:10086000CDBFE22E8A01962EA72EB82EF32E832F0F
:1008700090E00E9446026C01802F90E00E944602A8
:10088000292D3A2D4B2DBC01C6010E9492032796BB
:100890000FB6F894DEBF0FBECDBFDF91CF911F9191
:1008A0000F91FF90EF90DF90CF90BF90AF909F900F
:1008B000089588BB94989598969A8FE193E0019754
:1008C000F1F700C000009698089588E30E9459044B
:1008D00081E00E94590482E00E94590480E80E944D
:1008E00059048CE00C94590488BB949A9598969A74
:1008F00087EC90E00197F1F700C00000969808950A
:10090000EF92FF920F931F93CF93DF93EB017A0146
:100910008C01060F171FCE15DF056CF4C031D10511
:1009200019F480EC0E945904F80181918F010E9412
:1009300074042196F0CFDF91CF911F910F91FF901A
:10094000EF9008950F931F93CF93DF93EC016130E5
:10095000710511F480E804C06230710519F480EC6F
:100960000E945904C131D10514F0CF70DD2700E099
:1009700010E00C171D0734F484E10E9459040F5F46
:100980001F4FF7CFDF91CF911F910F9108950E94D4
:10099000B90086E990E00E94DD0120919600309137
:1009A0009700409198005091990060919A00709141
:1009B0009B0080919C000E941E04EBCF97FB072EAA
:1009C00016F4009407D077FD09D00E94F80407FCC4
:1009D00005D03EF4909581959F4F0895709561954F
:1009E0007F4F0895EE0FFF1F0590F491E02D0994BD
:1009F000AA1BBB1B51E107C0AA1FBB1FA617B70745
:100A000010F0A61BB70B881F991F5A95A9F7809560
:100A10009095BC01CD0108955058BB27AA270E948C
:100A200024050C9475060E94670638F00E946E0635
:100A300020F039F49F3F19F426F40C9464060EF468
:100A4000E095E7FB0C945E06E92F0E94860658F3BA
:100A5000BA17620773078407950720F079F4A6F5A3
:100A60000C94A8060EF4E0950B2EBA2FA02D0B01C6
:100A7000B90190010C01CA01A0011124FF27591BE3
:100A800099F0593F50F4503E68F11A16F040A22FE9
:100A9000232F342F4427585FF3CF4695379527955A
:100AA000A795F0405395C9F77EF41F16BA0B620B59
:100AB000730B840BBAF09150A1F0FF0FBB1F661FA0
:100AC000771F881FC2F70EC0BA0F621F731F841FE3
:100AD00048F4879577956795B795F7959E3F08F009
:100AE000B0CF9395880F08F09927EE0F97958795CB
:100AF00008950E948D050C9475060E946E0658F0AC
:100B00000E94670640F029F45F3F29F00C945E06CE
:100B100051110C94A9060C9464060E94860668F391
:100B20009923B1F3552391F3951B550BBB27AA27A6
:100B300062177307840738F09F5F5F4F220F331FE0
:100B4000441FAA1FA9F335D00E2E3AF0E0E832D0A8
:100B500091505040E695001CCAF72BD0FE2F29D0AB
:100B6000660F771F881FBB1F261737074807AB077D
:100B7000B0E809F0BB0B802DBF01FF2793585F4FF2
:100B80003AF09E3F510578F00C945E060C94A9064D
:100B90005F3FE4F3983ED4F3869577956795B795D4
:100BA000F7959F5FC9F7880F911D9695879597F9DF
:100BB0000895E1E0660F771F881FBB1F6217730758
:100BC0008407BA0720F0621B730B840BBA0BEE1F6D
:100BD00088F7E09508950E94F2056894B1110C948D
:100BE000A90608950E948E0688F09F5798F0B92FA5
:100BF0009927B751B0F0E1F0660F771F881F991F52
:100C00001AF0BA95C9F714C0B13091F00E94A80645
:100C1000B1E008950C94A806672F782F8827B85F55
:100C200039F0B93FCCF3869577956795B395D9F7A9
:100C30003EF490958095709561957F4F8F4F9F4FB3
:100C40000895E89409C097FB3EF4909580957095BF
:100C500061957F4F8F4F9F4F9923A9F0F92F96E908
:100C6000BB279395F695879577956795B795F1117D
:100C7000F8CFFAF4BB0F11F460FF1BC06F5F7F4F1A
:100C80008F4F9F4F16C0882311F096E911C077232C
:100C900021F09EE8872F762F05C0662371F096E835
:100CA000862F70E060E02AF09A95660F771F881F04
:100CB000DAF7880F9695879597F9089597F99F67C2
:100CC00080E870E060E008959FEF80EC08950024D4
:100CD0000A941616170618060906089500240A94A1
:100CE00012161306140605060895092E0394000C27
:100CF00011F4882352F0BB0F40F4BF2B11F460FFB6
:100D000004C06F5F7F4F8F4F9F4F089557FD9058DE
:100D1000440F551F59F05F3F71F04795880F97FBBF
:100D2000991F61F09F3F79F0879508951216130679
:100D30001406551FF2CF4695F1DF08C016161706A8
:100D40001806991FF1CF86957105610508940895DD
:100D5000E894BB2766277727CB0197F908950F936F
:100D60001F93CF93DF938230910510F482E090E0DF
:100D7000E0919F00F091A00020E030E0A0E0B0E022
:100D8000309719F140815181028113814817590729
:100D9000C8F08417950769F4109731F012960C93F8
:100DA000129713961C9327C000939F001093A000E6
:100DB00022C02115310519F04217530718F49A0182
:100DC000BD01EF01DF01F801DBCF21153105F9F09D
:100DD000281B390B2430310580F48A819B816115F1
:100DE000710521F0FB019383828304C09093A000DE
:100DF00080939F00FE01329644C0FE01E20FF31F74
:100E00008193919322503109398328833AC02091EC
:100E10009D0030919E00232B41F42091640030917D
:100E2000650030939E0020939D00209162003091D8
:100E300063002115310541F42DB73EB7409166009E
:100E400050916700241B350BE0919D00F0919E00AE
:100E5000E217F307A0F42E1B3F0B2817390778F091
:100E6000AC014E5F5F4F2417350748F04E0F5F1FF0
:100E700050939E0040939D008193919302C0E0E0C7
:100E8000F0E0CF01DF91CF911F910F910895CF93A3
:100E9000DF93009709F481C0FC013297138212821C
:100EA000A0919F00B091A000109781F42081318122
:100EB000820F931F20919D0030919E0028173907C3
:100EC00051F5F0939E00E0939D0067C0ED0120E096
:100ED00030E0CE17DF0740F44A815B819E01411567
:100EE0005105F1F0EA01F5CFD383C28340815181EE
:100EF000840F951FC817D90759F488819981840FE9
:100F0000951F0296918380838A819B81938382833C
:100F10002115310529F4F093A000E0939F003DC016
:100F2000E901FB83EA8349915991C40FD51FEC175E
:100F3000FD0761F480819181840F951F0296E9017C
:100F400099838883828193819B838A83E0E0F0E0A8
:100F500012968D919C911397009719F0FD01DC0179
:100F6000F7CF8D919C9111979D012E5F3F4F820F7E
:100F7000931F20919D0030919E002817390769F436
:100F8000309729F41092A00010929F0002C01382A3
:100F90001282B0939E00A0939D00DF91CF9108959F
:100FA000A0E0B0E0E6EDF7E00C94A308EC010097B8
:100FB00021F4CB010E94AF06B4C0FC01E60FF71F7D
:100FC0009C0122503109E217F30708F4A8C0D901A7
:100FD0000D911C91119706171707B0F005301105F8
:100FE00008F49BC0C80104978617970708F495C0BA
:100FF00002501109061B170B019311936D937C93FB
:10100000CF010E94470789C05B01A01AB10A4C01B9
:10101000800E911EA0919F00B091A000612C712CB8
:10102000E12CF12C109709F446C08D919C911197F9
:10103000A815B905B1F56C0142E0C40ED11CCA1463
:10104000DB0478F14C018A189B08640142E0C40E6D
:10105000D11C1296BC9012971396AC91B5E0CB16AA
:10106000D10440F0B282A38391828082D9016D9332
:101070007C9309C00E5F1F4F800F911FF901918370
:101080008083EB2DFA2FE114F10431F0D701139690
:10109000FC93EE93129741C0F093A000E0939F0061
:1010A0003CC06816790608F43C017D0112960D904B
:1010B000BC91A02DB7CF80919D0090919E00881685
:1010C0009906E1F466167706C8F480916200909163
:1010D0006300009741F48DB79EB740916600509130
:1010E0006700841B950BE817F907C8F4F0939E007E
:1010F000E0939D00F901718360830FC0CB010E94D2
:10110000AF067C01009759F0A801BE010E94960825
:10111000CE010E944707C70104C0CE0102C080E093
:1011200090E0CDB7DEB7EEE00C94BF08FB01DC0128
:1011300002C001900D9241505040D8F708952F926F
:101140003F924F925F926F927F928F929F92AF9257
:10115000BF92CF92DF92EF92FF920F931F93CF93A4
:10116000DF93CDB7DEB7CA1BDB0B0FB6F894DEBF3B
:101170000FBECDBF09942A88398848885F846E8461
:101180007D848C849B84AA84B984C884DF80EE80AB
:10119000FD800C811B81AA81B981CE0FD11D0FB6B4
:1011A000F894DEBF0FBECDBFED010895F894FFCFD8
:1011B00001000000A100200044617465202D200082
:1011C0002020004D4F4E00545545005745440054D3
:1011D000485500465249005341540053554E004E65
:0411E000494C000076
:00000001FF
