:100000000C942A000C9447000C9447000C94470071
:100010000C9447000C9447000C9447000C94470044
:100020000C9447000C9447000C9447000C94470034
:100030000C9447000C9447000C9447000C94470024
:100040000C9447000C9447000C9447000C94470014
:100050000C94470011241FBECFE5D8E0DEBFCDBF12
:1000600010E0A0E6B0E0E6E3F7E002C005900D92F4
:10007000AE36B107D9F720E0AEE6B0E001C01D9280
:10008000A037B207E1F70E94E9010C9499030C94A0
:10009000000088BB94989598969A61E070E080E0A3
:1000A00090E00E94C1019698089588E30E9449005B
:1000B00061E070E080E090E00E94C10181E00E9478
:1000C000490061E070E080E090E00E94C10182E0C0
:1000D0000E94490061E070E080E090E00E94C10170
:1000E00080E80E94490061E070E080E090E00E94BA
:1000F000C1018CE00E94490061E070E080E090E086
:100100000C94C10188BB949A9598969A61E070E02E
:1001100080E090E00E94C10196980895EF92FF92CE
:100120000F931F93CF93DF93EB017A018C01060F9E
:10013000171FCE15DF056CF4C031D10519F480EC22
:100140000E944900F80181918F010E94820021964E
:10015000F0CFDF91CF911F910F91FF90EF90089515
:100160000F931F93CF93DF93EC016130710511F46E
:1001700080E804C06230710519F480EC0E944900E7
:10018000C131D10514F0CF70DD2700E010E00C176D
:100190001D0734F484E10E9449000F5F1F4FF7CF21
:1001A000DF91CF911F910F910895CF92DF92EF923F
:1001B000FF920F931F93CF93DF937C010E94E00186
:1001C0008C0181E00E944900809160009091610063
:1001D000019719F480E80E94490080916000909195
:1001E0006100029719F480EC0E9449006091600060
:1001F0007091610080916E0090916F009C012F5F63
:100200003F4F30936F0020936E000E94B00082E158
:1002100090E0801B910B20916E0030916F0082174F
:10022000930709F075C0C1E0D0E00C171D070CF46E
:1002300058C081E00E944900809160009091610067
:10024000019719F480E80E94490080916000909124
:100250006100029719F480EC0E94490060916000EF
:100260007091610080916E0090916F008C0F9D1FC6
:1002700002970E94B0006801CC1ADD0AA60160E076
:1002800070E0C7010E948E00809160009091610033
:100290008130910511F480EC03C0029719F480E8D5
:1002A0000E944900A801B601C7010E948E008091FA
:1002B0006000909161008130910511F480EC03C0E1
:1002C000029719F480E80E94490021960C171D0737
:1002D0000CF4ABCF6CE271E080E090E00E94C101D1
:1002E000A4CF81E090E090936F0080936E00209106
:1002F0006000309161002130310519F482E090E016
:1003000003C02230310501F59093610080936000B5
:1003100080916E0090916F004097B1F410926F0041
:1003200010926E0080916000909161008130910583
:1003300019F482E090E004C0029731F481E090E08B
:100340009093610080936000DF91CF911F910F9196
:10035000FF90EF90DF90CF900895EC010E94E001B4
:100360008C01CE010E94D500A80160E070E0CE01B2
:100370000E948E006CE271E080E090E00E94C1017A
:10038000F0CF0E940D032FE632E143E05EE30E94CE
:1003900063029B01AC0160E07FEF8FE797E40E946E
:1003A000F6010E94D5027DBD6CBD1FBC8EB5856077
:1003B0008EBD08B602FEFDCF1EBC84E088BF089546
:1003C000FC019F01281B390B41914111FACFC90152
:1003D00008958FEF87BB80E781BB0E94550082E6BE
:1003E00090E00E94AD0180E090E008955058BB2756
:1003F000AA270E940E020C945F030E94510338F05A
:100400000E94580320F039F49F3F19F426F40C940D
:100410004E030EF4E095E7FB0C944803E92F0E948D
:10042000700358F3BA17620773078407950720F023
:1004300079F4A6F50C9492030EF4E0950B2EBA2FE6
:10044000A02D0B01B90190010C01CA01A0011124DA
:10045000FF27591B99F0593F50F4503E68F11A1686
:10046000F040A22F232F342F4427585FF3CF469517
:1004700037952795A795F0405395C9F77EF41F1639
:10048000BA0B620B730B840BBAF09150A1F0FF0F03
:10049000BB1F661F771F881FC2F70EC0BA0F621FEF
:1004A000731F841F48F4879577956795B795F795DF
:1004B0009E3F08F0B0CF9395880F08F09927EE0F74
:1004C0009795879508950E9477020C945F030E9488
:1004D000580358F00E94510340F029F45F3F29F07F
:1004E0000C94480351110C9493030C944E030E94F6
:1004F000700368F39923B1F3552391F3951B550BC2
:10050000BB27AA2762177307840738F09F5F5F4FE6
:10051000220F331F441FAA1FA9F335D00E2E3AF025
:10052000E0E832D091505040E695001CCAF72BD03D
:10053000FE2F29D0660F771F881FBB1F261737078E
:100540004807AB07B0E809F0BB0B802DBF01FF27C0
:1005500093585F4F3AF09E3F510578F00C94480352
:100560000C9493035F3FE4F3983ED4F3869577951C
:100570006795B795F7959F5FC9F7880F911D969579
:10058000879597F90895E1E0660F771F881FBB1FD5
:10059000621773078407BA0720F0621B730B840B82
:1005A000BA0BEE1F88F7E09508950E94DC0268946C
:1005B000B1110C94930308950E94780388F09F571B
:1005C00098F0B92F9927B751B0F0E1F0660F771F77
:1005D000881F991F1AF0BA95C9F714C0B13091F06D
:1005E0000E949203B1E008950C949203672F782F34
:1005F0008827B85F39F0B93FCCF386957795679532
:10060000B395D9F73EF490958095709561957F4F9D
:100610008F4F9F4F0895E89409C097FB3EF4909543
:100620008095709561957F4F8F4F9F4F9923A9F0CB
:10063000F92F96E9BB279395F6958795779567955A
:10064000B795F111F8CFFAF4BB0F11F460FF1BC09E
:100650006F5F7F4F8F4F9F4F16C0882311F096E931
:1006600011C0772321F09EE8872F762F05C06623DF
:1006700071F096E8862F70E060E02AF09A95660F98
:10068000771F881FDAF7880F9695879597F9089551
:1006900097F99F6780E870E060E008959FEF80EC35
:1006A000089500240A9416161706180609060895D8
:1006B00000240A9412161306140605060895092E3E
:1006C0000394000C11F4882352F0BB0F40F4BF2BAD
:1006D00011F460FF04C06F5F7F4F8F4F9F4F0895ED
:1006E00057FD9058440F551F59F05F3F71F04795E3
:1006F000880F97FB991F61F09F3F79F087950895C8
:10070000121613061406551FF2CF4695F1DF08C0E6
:10071000161617061806991FF1CF86957105610503
:1007200008940895E894BB2766277727CB0197F9AB
:060730000895F894FFCFCC
:0E073600010048454C4C4F20574F524C440098
:00000001FF
