:100000000C9445000C9423010C9462000C94620043
:100010000C9462000C9462000C9462000C946200D8
:100020000C9462000C9462000C9462000C946200C8
:100030000C9462000C9462000C9462000C946200B8
:100040000C9462000C9462000C9462000C946200A8
:100050000C9462006C006E007000720074007600F8
:1000600078007A007C007E00A401A601A801AA0104
:10007000AC01AE01B001B201B401B60188028B023D
:100080008E029102940297029A0211241FBECFE5BC
:10009000D8E0DEBFCDBF10E0A0E6B0E0ECEAF1E1D1
:1000A00002C005900D92A439B107D9F720E0A4E968
:1000B000B0E001C01D92A13AB207E1F70E94BC0472
:1000C0000C94D4080C9400008A309105C8F4FC010B
:1000D000E65DFF4F0C94F0048FE711C08DE00FC078
:1000E00087EB0DC08FE90BC08DEC09C08BED07C00D
:1000F0008BEF05C08FE003C08FEF01C08FED88BB91
:1001000008958FEF84BB87BB80E781BB8B9A8AB34E
:100110008F608ABB80E48BBF83E085BF78940E94A8
:100120005A0462E070E080E090E00E94970447E0AB
:1001300050E060E070E088E690E00E9475040C9466
:10014000E1030E9421062FE632E143E05EE30E94D4
:1001500077059B01AC0160E07FEF8FE797E40E9499
:100160000A050E94E9057DBD6CBD1FBC8EB585608A
:100170008EBD08B602FEFDCF1EBC84E088BF089588
:10018000FC01108286E2818389E1828382E083839D
:1001900086E1848381E1858381E286830895CF931C
:1001A000DF93CDB7DEB727970FB6F894DEBF0FBE4B
:1001B000CDBF29833A834B835C836D837E838F839A
:1001C000CE0101960E94C00061E070E080ED0E94C7
:1001D000E503019619F48FEF9FEF2CC080E00E9499
:1001E00018040196C1F389810E941804019699F3BD
:1001F0008A810E941804019671F38B810E94180471
:10020000019649F38C810E941804019621F38D8197
:100210000E9418040196F9F28E810E94180401963A
:10022000D1F28F810E9418040196A9F20E944A041B
:1002300080E090E027960FB6F894DEBF0FBECDBFEA
:10024000DF91CF9108951F920F920FB60F92112454
:100250002F933F934F935F936F937F938F939F93CE
:10026000AF93BF93EF93FF93209196003091970047
:10027000409198005091990060919A0070919B0074
:1002800080919C000E94CF00FF91EF91BF91AF91B0
:100290009F918F917F916F915F914F913F912F919E
:1002A0000F900FBE0F901F901895CF93DF93EC0126
:1002B00061E070E080ED0E94E503019619F48FEF94
:1002C0009FEF33C080E00E9418040196C1F362E002
:1002D00070E081ED0E94E503019689F380E090E0F3
:1002E0000E942A04888380E090E00E942A04898387
:1002F00080E090E00E942A048A8380E090E00E94DF
:100300002A048B8380E090E00E942A048C8380E0A2
:1003100090E00E942A048D8381E090E00E942A04EC
:100320008E830E944A0480E090E0DF91CF9108958F
:10033000672B11F40C9464008A309105C8F4FC0119
:10034000EC5CFF4F0C94F0048EE711C08CE00FC002
:1003500086EB0DC08EE90BC08CEC09C08AED07C09E
:100360008AEF05C08EE003C08EEF01C08EED88BB22
:1003700008959C0144E0359527954A95E1F72F7043
:1003800033274AE0429FF001439FF00D112460E1C2
:1003900070E00E94DC048E0F9F1F0895CF93DF93BF
:1003A000EC01CB0163E070E00E94CE07FC010097F6
:1003B00011F1209729F0DC01129681E090E004C051
:1003C00080E38083818313C01C161D0664F40197AB
:1003D0009E012F703327205D2E9324E0D595C7957D
:1003E0002A95E1F7F1CF892B11F480E38083128203
:1003F00080E090E002C08FEF9FEFDF91CF910895F2
:10040000FC019F01281B390B41914111FACFC90111
:100410000895FC01DB019D01261B370B4D91442300
:1004200011F04193F8CFFC01E20FF31F1082089501
:10043000DF92EF92FF920F931F93CF93DF93CDB78D
:10044000DEB727970FB6F894DEBF0FBECDBF5C8333
:100450006D837E838F83F22EE32ED42E83E090E093
:100460000E94AD068C01892B19F48FEF9FEFBFC05E
:1004700061E070E080E090E00E949704B8018D2D6B
:1004800090E00E94CE0142E050E060E070E0C801E0
:100490000E9475048AE30E946904F8011082B80181
:1004A0008E2D90E00E94CE0142E050E060E070E0CE
:1004B000C8010E9475048AE30E946904F801108251
:1004C00061E070E086E090E00E949704B8018F2D13
:1004D00090E00E94CE0142E050E060E070E0C80190
:1004E0000E94750442E050E060E070E080E790E038
:1004F0000E947504F8011082EC818E2F90E0FC01BF
:100500003197E730F105C8F4E25CFF4F0C94F0043A
:1005100063E770E014C067E770E011C06BE770E05C
:100520000EC06FE770E00BC063E870E008C067E8DA
:1005300070E005C06BE870E002C06FE870E0C801D1
:100540000E940902C8010E9400027C01BC016F5F89
:100550007F4FC8010E94CE078C01009709F485CF18
:10056000A70160E070E00E94750462E070E087E03F
:1005700090E00E9497048D81B80190E00E94CE0126
:10058000019609F472CF42E050E060E070E0C801EB
:100590000E9475048FE20E946904F80110828E8126
:1005A000B80190E00E94CE01019609F45ECF42E0CE
:1005B00050E060E070E0C8010E9475048FE20E9484
:1005C0006904F80110828F81B80190E00E94CE0189
:1005D000019609F44ACF42E050E060E070E0C801C3
:1005E0000E947504C8010E94450780E090E02796AC
:1005F0000FB6F894DEBF0FBECDBFDF91CF911F9134
:100600000F91FF90EF90DF900895AF92BF92CF923D
:10061000DF92EF92FF920F931F93CF93DF93CDB7AB
:10062000DEB727970FB6F894DEBF0FBECDBFDC0153
:10063000FB01E982FA820B831C832D833E834F8367
:1006400080EF8DBD8CEB8CBD1FBC9EB595609EBDB3
:100650002AE030E0CD01B9010E94DC048C01CB011D
:10066000B9010E94DC047C01CF01B9010E94DC04C5
:100670006C01CB01B9010E94DC045C0108B602FCEC
:1006800033C0D89A61E070E0C8010E9498018FE100
:1006900093E00197F1F700C00000D898D99A61E083
:1006A00070E0C7010E9498018FE193E00197F1F794
:1006B00000C00000D998DA9AC6010E9464008FE158
:1006C00093E00197F1F700C00000DA98DB9A61E04F
:1006D00070E0C5010E9498018FE193E00197F1F766
:1006E00000C00000DB98CACF1EBC88B7846088BFFA
:1006F00029813A814B815C816D817E818F810E944D
:10070000180221E030E0019611F020E030E0882767
:100710009927821B930B27960FB6F894DEBF0FBE66
:10072000CDBFDF91CF911F910F91FF90EF90DF90A0
:10073000CF90BF90AF9008959F92AF92BF92CF920B
:10074000DF92EF92FF920F931F93CF93DF93CDB77A
:10075000DEB727970FB6F894DEBF0FBECDBFE22EEF
:100760008A01962EA72EB82EF32E832F90E00E949A
:10077000B9016C01802F90E00E94B901292D3A2D1A
:100780004B2DBC01C6010E94050321E030E001961B
:1007900011F020E030E088279927821B930B2796E1
:1007A0000FB6F894DEBF0FBECDBFDF91CF911F9182
:1007B0000F91FF90EF90DF90CF90BF90AF909F9000
:1007C000089511B882E180B9089596B7946A96BFEA
:1007D00006B607FEFDCF6130710531F491B1987F07
:1007E000983059F0AA9A1EC06230710531F491B167
:1007F000987F903111F0AB9A15C083B986B78F7D81
:1008000086BF86B7806886BF06B607FEFDCF81B17A
:10081000887F6130710519F4883139F002C0803465
:1008200021F0AC9A8FEF9FEF089580E090E008955B
:1008300083B986B7806886BF06B607FEFDCF81B153
:10084000887F883221F0AD9A8FEF9FEF089580E086
:1008500090E00895009761F486B7806C86BF06B675
:1008600007FEFDCF81B1887F803591F0AE9A10C030
:10087000019771F486B78F7B86BF86B7806886BF85
:1008800006B607FEFDCF81B1887F883509F0AF9AA3
:1008900083B1089586B7806986BF089588BB949810
:1008A0009598969A8FE193E00197F1F700C00000C8
:1008B0009698089588E30E944E0481E00E944E04B9
:1008C00082E00E944E0480E80E944E048CE00C946A
:1008D0004E0488BB949A9598969A8FE193E001977D
:1008E000F1F700C0000096980895EF92FF920F93E1
:1008F0001F93CF93DF93EB017A018C01060F171F33
:10090000CE15DF056CF4C031D10519F480EC0E94DE
:100910004E04F80181918F010E9469042196F0CF65
:10092000DF91CF911F910F91FF90EF9008950F935A
:100930001F93CF93DF93EC016130710511F480E8D0
:1009400004C06230710519F480EC0E944E04C1317C
:10095000D10514F0CF70DD2700E010E00C171D0763
:1009600034F484E10E944E040F5F1F4FF7CFDF91F4
:10097000CF911F910F9108950E94810086E990E028
:100980000E9455010196A9F02091960030919700A0
:10099000409198005091990060919A0070919B004D
:1009A00080919C000E949C03019641F780E090E0BA
:1009B000089581E090E0089597FB072E16F40094C7
:1009C00007D077FD09D00E94F60407FC05D03EF45D
:1009D000909581959F4F0895709561957F4F0895EB
:1009E000EE0FFF1F0590F491E02D0994AA1BBB1B8D
:1009F00051E107C0AA1FBB1FA617B70710F0A61B1F
:100A0000B70B881F991F5A95A9F780959095BC013F
:100A1000CD0108955058BB27AA270E9422050C94A7
:100A200073060E94650638F00E946C0620F039F4C7
:100A30009F3F19F426F40C9462060EF4E095E7FB50
:100A40000C945C06E92F0E94840658F3BA176207DB
:100A500073078407950720F079F4A6F50C94A60691
:100A60000EF4E0950B2EBA2FA02D0B01B9019001C9
:100A70000C01CA01A0011124FF27591B99F0593F0D
:100A800050F4503E68F11A16F040A22F232F342F55
:100A90004427585FF3CF469537952795A795F040A3
:100AA0005395C9F77EF41F16BA0B620B730B840BB8
:100AB000BAF09150A1F0FF0FBB1F661F771F881F70
:100AC000C2F70EC0BA0F621F731F841F48F48795C8
:100AD00077956795B795F7959E3F08F0B0CF9395BA
:100AE000880F08F09927EE0F9795879508950E9433
:100AF0008B050C9473060E946C0658F00E946506E4
:100B000040F029F45F3F29F00C945C0651110C94DD
:100B1000A7060C9462060E94840668F39923B1F339
:100B2000552391F3951B550BBB27AA276217730713
:100B3000840738F09F5F5F4F220F331F441FAA1FA7
:100B4000A9F335D00E2E3AF0E0E832D09150504063
:100B5000E695001CCAF72BD0FE2F29D0660F771F11
:100B6000881FBB1F261737074807AB07B0E809F0F7
:100B7000BB0B802DBF01FF2793585F4F3AF09E3F7C
:100B8000510578F00C945C060C94A7065F3FE4F3E3
:100B9000983ED4F3869577956795B795F7959F5FBF
:100BA000C9F7880F911D9695879597F90895E1E00B
:100BB000660F771F881FBB1F621773078407BA076A
:100BC00020F0621B730B840BBA0BEE1F88F7E095C5
:100BD00008950E94F0056894B1110C94A706089539
:100BE0000E948C0688F09F5798F0B92F9927B7512B
:100BF000B0F0E1F0660F771F881F991F1AF0BA95C1
:100C0000C9F714C0B13091F00E94A606B1E0089572
:100C10000C94A606672F782F8827B85F39F0B93F64
:100C2000CCF3869577956795B395D9F73EF4909573
:100C30008095709561957F4F8F4F9F4F0895E894F1
:100C400009C097FB3EF490958095709561957F4F14
:100C50008F4F9F4F9923A9F0F92F96E9BB279395C2
:100C6000F695879577956795B795F111F8CFFAF4D2
:100C7000BB0F11F460FF1BC06F5F7F4F8F4F9F4F03
:100C800016C0882311F096E911C0772321F09EE861
:100C9000872F762F05C0662371F096E8862F70E0C7
:100CA00060E02AF09A95660F771F881FDAF7880FA1
:100CB0009695879597F9089597F99F6780E870E072
:100CC00060E008959FEF80EC089500240A941616C2
:100CD000170618060906089500240A94121613062A
:100CE000140605060895092E0394000C11F48823B8
:100CF00052F0BB0F40F4BF2B11F460FF04C06F5FD4
:100D00007F4F8F4F9F4F089557FD9058440F551FA9
:100D100059F05F3F71F04795880F97FB991F61F07D
:100D20009F3F79F087950895121613061406551FF4
:100D3000F2CF4695F1DF08C0161617061806991F60
:100D4000F1CF86957105610508940895E894BB2755
:100D500066277727CB0197F908950F931F93CF93B9
:100D6000DF938230910510F482E090E0E0919F00E3
:100D7000F091A00020E030E0A0E0B0E0309719F161
:100D8000408151810281138148175907C8F08417A7
:100D9000950769F4109731F012960C9312971396F9
:100DA0001C9327C000939F001093A00022C0211520
:100DB000310519F04217530718F49A01BD01EF01EC
:100DC000DF01F801DBCF21153105F9F0281B390BC4
:100DD0002430310580F48A819B816115710521F0F1
:100DE000FB019383828304C09093A00080939F00B3
:100DF000FE01329644C0FE01E20FF31F81939193EE
:100E000022503109398328833AC020919D003091C6
:100E10009E00232B41F420916400309165003093B3
:100E20009E0020939D002091620030916300211567
:100E3000310541F42DB73EB74091660050916700EF
:100E4000241B350BE0919D00F0919E00E217F30703
:100E5000A0F42E1B3F0B2817390778F0AC014E5F2A
:100E60005F4F2417350748F04E0F5F1F50939E00C9
:100E700040939D008193919302C0E0E0F0E0CF01A8
:100E8000DF91CF911F910F910895CF93DF9300973A
:100E900009F481C0FC01329713821282A0919F0055
:100EA000B091A000109781F420813181820F931FAF
:100EB00020919D0030919E002817390751F5F0933D
:100EC0009E00E0939D0067C0ED0120E030E0CE176A
:100ED000DF0740F44A815B819E0141155105F1F025
:100EE000EA01F5CFD383C28340815181840F951FDE
:100EF000C817D90759F488819981840F951F0296E4
:100F0000918380838A819B8193838283211531051C
:100F100029F4F093A000E0939F003DC0E901FB831A
:100F2000EA8349915991C40FD51FEC17FD0761F46D
:100F300080819181840F951F0296E90199838883AE
:100F4000828193819B838A83E0E0F0E012968D9109
:100F50009C911397009719F0FD01DC01F7CF8D915B
:100F60009C9111979D012E5F3F4F820F931F2091FF
:100F70009D0030919E002817390769F4309729F4B5
:100F80001092A00010929F0002C013821282B093B0
:100F90009E00A0939D00DF91CF910895A0E0B0E066
:100FA000E4EDF7E00C94A108EC01009721F4CB01EB
:100FB0000E94AD06B4C0FC01E60FF71F9C01225051
:100FC0003109E217F30708F4A8C0D9010D911C916B
:100FD000119706171707B0F00530110508F49BC0EC
:100FE000C80104978617970708F495C002501109A5
:100FF000061B170B019311936D937C93CF010E94F5
:10100000450789C05B01A01AB10A4C01800E911EF0
:10101000A0919F00B091A000612C712CE12CF12CCB
:10102000109709F446C08D919C911197A815B905A8
:10103000B1F56C0142E0C40ED11CCA14DB0478F196
:101040004C018A189B08640142E0C40ED11C129620
:10105000BC9012971396AC91B5E0CB16D10440F03A
:10106000B282A38391828082D9016D937C9309C05F
:101070000E5F1F4F800F911FF90191838083EB2D2D
:10108000FA2FE114F10431F0D7011396FC93EE939B
:10109000129741C0F093A000E0939F003CC06816F7
:1010A000790608F43C017D0112960D90BC91A02DAB
:1010B000B7CF80919D0090919E0088169906E1F42B
:1010C00066167706C8F480916200909163000097DD
:1010D00041F48DB79EB74091660050916700841B24
:1010E000950BE817F907C8F4F0939E00E0939D0074
:1010F000F901718360830FC0CB010E94AD067C01B2
:10110000009759F0A801BE010E949408CE010E94E8
:101110004507C70104C0CE0102C080E090E0CDB712
:10112000DEB7EEE00C94BD08FB01DC0102C00190CB
:101130000D9241505040D8F708952F923F924F9210
:101140005F926F927F928F929F92AF92BF92CF9257
:10115000DF92EF92FF920F931F93CF93DF93CDB760
:10116000DEB7CA1BDB0B0FB6F894DEBF0FBECDBFD8
:1011700009942A88398848885F846E847D848C84A9
:101180009B84AA84B984C884DF80EE80FD800C81B2
:101190001B81AA81B981CE0FD11D0FB6F894DEBF95
:0C11A0000FBECDBFED010895F894FFCF05
:1011AC0001000000A100200044617465202D200086
:1011BC002020004D4F4E00545545005745440054D7
:1011CC00485500465249005341540053554E004E69
:0411DC00494C00007A
:00000001FF
